{"abi":[{"type":"constructor","inputs":[{"name":"_messenger","type":"address","internalType":"address"}],"stateMutability":"nonpayable"},{"type":"function","name":"messenger","inputs":[],"outputs":[{"name":"","type":"address","internalType":"contract IL2CrossDomainMessenger"}],"stateMutability":"view"},{"type":"function","name":"testSendMessage","inputs":[{"name":"_target","type":"address","internalType":"address"},{"name":"_message","type":"bytes","internalType":"bytes"},{"name":"_gas","type":"uint32","internalType":"uint32"}],"outputs":[],"stateMutability":"nonpayable"},{"type":"event","name":"MessageSent","inputs":[{"name":"target","type":"address","indexed":false,"internalType":"address"},{"name":"message","type":"bytes","indexed":false,"internalType":"bytes"}],"anonymous":false}],"bytecode":{"object":"0x60a060405234801561000f575f5ffd5b50604051610571380380610571833981810160405281019061003191906100c9565b8073ffffffffffffffffffffffffffffffffffffffff1660808173ffffffffffffffffffffffffffffffffffffffff1681525050506100f4565b5f5ffd5b5f73ffffffffffffffffffffffffffffffffffffffff82169050919050565b5f6100988261006f565b9050919050565b6100a88161008e565b81146100b2575f5ffd5b50565b5f815190506100c38161009f565b92915050565b5f602082840312156100de576100dd61006b565b5b5f6100eb848285016100b5565b91505092915050565b6080516104606101115f395f818160740152609801526104605ff3fe608060405234801561000f575f5ffd5b5060043610610034575f3560e01c80633cb747bf14610038578063df2b0c1a14610056575b5f5ffd5b610040610072565b60405161004d91906101dd565b60405180910390f35b610070600480360381019061006b91906102d3565b610096565b005b7f000000000000000000000000000000000000000000000000000000000000000081565b7f000000000000000000000000000000000000000000000000000000000000000073ffffffffffffffffffffffffffffffffffffffff16633dbb202b858585856040518563ffffffff1660e01b81526004016100f594939291906103bc565b5f604051808303815f87803b15801561010c575f5ffd5b505af115801561011e573d5f5f3e3d5ffd5b505050507ff22594d45c97446a57498873c6f8577dd7b9cda99a97b41b60339c38b8790fe1848484604051610155939291906103fa565b60405180910390a150505050565b5f73ffffffffffffffffffffffffffffffffffffffff82169050919050565b5f819050919050565b5f6101a56101a061019b84610163565b610182565b610163565b9050919050565b5f6101b68261018b565b9050919050565b5f6101c7826101ac565b9050919050565b6101d7816101bd565b82525050565b5f6020820190506101f05f8301846101ce565b92915050565b5f5ffd5b5f5ffd5b5f61020882610163565b9050919050565b610218816101fe565b8114610222575f5ffd5b50565b5f813590506102338161020f565b92915050565b5f5ffd5b5f5ffd5b5f5ffd5b5f5f83601f84011261025a57610259610239565b5b8235905067ffffffffffffffff8111156102775761027661023d565b5b60208301915083600182028301111561029357610292610241565b5b9250929050565b5f63ffffffff82169050919050565b6102b28161029a565b81146102bc575f5ffd5b50565b5f813590506102cd816102a9565b92915050565b5f5f5f5f606085870312156102eb576102ea6101f6565b5b5f6102f887828801610225565b945050602085013567ffffffffffffffff811115610319576103186101fa565b5b61032587828801610245565b93509350506040610338878288016102bf565b91505092959194509250565b61034d816101fe565b82525050565b5f82825260208201905092915050565b828183375f83830152505050565b5f601f19601f8301169050919050565b5f61038c8385610353565b9350610399838584610363565b6103a283610371565b840190509392505050565b6103b68161029a565b82525050565b5f6060820190506103cf5f830187610344565b81810360208301526103e2818587610381565b90506103f160408301846103ad565b95945050505050565b5f60408201905061040d5f830186610344565b8181036020830152610420818486610381565b905094935050505056fea26469706673582212202520612163797b3f2c4dc3c1caa1d2f6ce1ba3ce952223ae1467ed778692cf4364736f6c63430008210033","linkReferences":{}},"methodIdentifiers":{"messenger()":"3cb747bf","testSendMessage(address,bytes,uint32)":"df2b0c1a"},"id":0}